:020000040000FA
:0400000000EF08F015
:1010000034EC08F038EC08F0C282C2B205EF08F008
:10101000330EC46010EF08F0000E836E04EF08F08A
:10102000660EC46018EF08F0010E836E04EF08F03E
:10103000990EC46020EF08F0020E836E04EF08F0F2
:10104000CC0EC46028EF08F0030E836E04EF08F0A6
:10105000FA0EC46030EF08F0040E836E04EF08F05F
:10106000050E836E04EF08F0956AFF0E926E120073
:0E107000010EC26E0E0EC06E0C0EC06E12008F
:020000040030CA
:04000000240E3F1E6D
:020005008181F7
:060008000FC00FE00F40E5
:00000001FF
